:10000000000E006F066F000E936E816A946E826A16
:10001000956E836A100E926E806A966E846A0F0ED9
:10002000816E030E826EFF0E836E83ECFFF06FEC29
:10003000FFF0010E816E826E836A022B71ECFFF07D
:100040000251820A20E0100E006F8050001716E067
:10005000010E076F1DEF00F0100E006F84500017A7
:1000600000E0010E081702E11DEF00F0086B97ECAD
:10007000FFF01DEF00F0076BBAEFFFF0010E07175E
:10008000FAE11DEF00F06DECFFF0026B010E0615BA
:1000900005E1020E06150BE11DEF00F0020E06153C
:1000A0000AE0010E0527B2ECFFF01DEF00F09CEC1A
:0E00B000FFF01DEF00F0A7ECFFF01DEF00F0D9
:020000040001F9
:10FED60000EF00F00000120000001200006B016B42
:10FEE600002B0051FF0A02E073EFFFF0006B012BBD
:10FEF6000151190A02E073EFFFF0006B016B12006B
:10FF060071ECFFF0022B0251FF0A02E083EFFFF0D3
:10FF1600026B120071ECFFF0022B0251400A02E064
:10FF26008DEFFFF0026B1200010E0627030E061777
:10FF36001200FF0E041504E004C082FF046B1200D9
:10FF460082CF04F0826A1200FF0E031504E003C09C
:10FF560081FF036B120081CF03F0816A1200010E4C
:10FF6600055D04E0FE0E8316834212001200010EA8
:10FF7600061505E1020E061507E11DEF00F0020E5B
:10FF860006150DE01DEF00F0FF0E821404E0030ECF
:10FF9600821A1DEF00F0030E041B1DEF00F0FF0E8A
:10FFA600811417E0010E005D18E0030E005D19E0F4
:10FFB600070E005D1AE00F0E005D1BE0FF0E8114B8
:10FFC60004E000C081FF1DEF00F000C003F01DEF4C
:10FFD60000F003C000F0D5EFFFF0030E006FE1EF75
:10FFE600FFF0070E006FE1EFFFF00F0E006FE1EF7D
:0AFFF600FFF0010E006FE1EFFFF0D5
:020000040030CA
:0600010006191EF38381C5
:06000800FFC0FFE0FF4015
:00000001FF
