:020000040000FA
:0400000013EF00F00A
:060008002A823CED06F027
:100018002A80E0CF13F013C0E0FF2A90100016EFFB
:1000280006F0000E1D6E2404D8A41DEF00F01FEF8B
:1000380000F021EF00F01D2A24682304D8A427EF3C
:1000480000F029EF00F02BEF00F01D2A23682204AE
:10005800D8A431EF00F033EF00F035EF00F01D2A9F
:1000680022682104D8A43BEF00F03DEF00F03FEFF9
:1000780000F01D2A21682004D8A445EF00F047EFBE
:1000880000F049EF00F01D2A2068010E1D644FEFB3
:1000980000F051EF00F08DEF00F01F68010E086EC0
:1000A8008DEF00F030EC06F0B9EF00F085A05FEFBF
:1000B80000F061EF00F056EF00F0010E036EB9EFAB
:1000C80000F085A26AEF00F06CEF00F070EF00F02E
:1000D800010E036E72EF00F030EC06F085A477EFA6
:1000E80000F079EF00F056EF00F061EF00F085A620
:1000F80080EF00F082EF00F056EF00F061EF00F0C3
:1001080085A889EF00F08BEF00F056EF00F061EF63
:1001180000F01F501B6E1C6A1C50000AD8B49BEFDD
:1001280000F0FF0AD8B4B2EF00F0B9EF00F01B50AE
:10013800000AD8B45AEF00F0010AD8B465EF00F00D
:10014800030AD8B472EF00F0010AD8B47BEF00F0CC
:10015800070AD8B484EF00F0B9EF00F01B50FF0A8B
:10016800D8B456EF00F0B9EF00F0050E1F6EC1EFDE
:1001780001F0F00E48EC06F0010E056EFDEC02F001
:10018800042A010E1E6EEEEF01F00304D8A4CFEF8F
:1001980000F0D1EF00F0EEEF01F0072A0850D8A4E4
:1001A800D8EF00F0DAEF00F0E8EF00F00750800A2F
:1001B8007A0FD8A0E2EF00F0E4EF00F0E8EF00F0EB
:1001C80030EC06F0EAEF00F0000E086E050E046051
:1001D800F0EF00F0F2EF00F0F6EF00F07CEC05F045
:1001E800FDEC02F0040E0464FCEF00F0FEEF00F0FA
:1001F80000EF01F07CEC05F0042A0B0E0418D8A4DB
:1002080008EF01F00AEF01F00CEF01F0020E056EA5
:10021800F00E48EC06F0EEEF01F0000E046E3D0E15
:1002280048EC06F0030E056EFDEC02F0042A020EFF
:100238001E6EEEEF01F00304D8A425EF01F027EFBE
:1002480001F0EEEF01F0072A0850D8A42EEF01F0D4
:1002580030EF01F03EEF01F00750800A7A0FD8A086
:1002680038EF01F03AEF01F03EEF01F030EC06F024
:1002780040EF01F0000E086E0A0E046046EF01F030
:1002880048EF01F04CEF01F07CEC05F0FDEC02F0DA
:10029800090E046452EF01F054EF01F056EF01F03B
:1002A8007CEC05F0042A100E0418D8A45EEF01F0C7
:1002B80060EF01F062EF01F0040E056E3D0E48ECB0
:1002C80006F0EEEF01F0000E046E2E0E48EC06F07C
:1002D800050E056EFDEC02F0042A030E1E6EEEEF0D
:1002E80001F00304D8A47BEF01F07DEF01F0EEEFFD
:1002F80001F0072A0850D8A484EF01F086EF01F036
:1003080094EF01F00750800A7A0FD8A08EEF01F021
:1003180090EF01F094EF01F030EC06F096EF01F069
:10032800000E086E0F0E04609CEF01F09EEF01F0C6
:10033800A2EF01F07CEC05F0FDEC02F00E0E046477
:10034800A8EF01F0AAEF01F0ACEF01F07CEC05F0AA
:10035800042A150E0418D8A4B4EF01F0B6EF01F082
:10036800B8EF01F0060E056E2E0E48EC06F0EEEF23
:1003780001F05CEC06F0EEEF01F005501B6E1C6A14
:100388001C50000AD8B4CBEF01F0EEEF01F01B507F
:10039800000AD8B4BDEF00F0010AD8B4C9EF00F0E4
:1003A800030AD8B411EF01F0010AD8B41FEF01F025
:1003B800070AD8B467EF01F0010AD8B475EF01F065
:1003C800030AD8B4BDEF01F0010AD8B4BDEF01F0BB
:1003D800EEEF01F01200CFEF02F00F50D8A4F7EFC4
:1003E80001F0F9EF01F000EF02F0000E146E265054
:1003F8009DEC04F0FCEF02F0030E146E1E509DEC11
:1004080004F0FCEF02F00F50D8A40DEF02F00FEF4C
:1004180002F016EF02F0000E146E26509DEC04F068
:10042800FCEF02F0030E146E1E509DEC04F0FCEF7E
:1004380002F00F50D8A423EF02F025EF02F02CEFC2
:1004480002F0000E146E26509DEC04F0FCEF02F052
:10045800030E146E1E509DEC04F0FCEF02F00F50DA
:10046800D8A439EF02F03BEF02F042EF02F0000EA1
:10047800146E26509DEC04F0FCEF02F0030E146E8F
:100488001E509DEC04F0FCEF02F00F50D8A44FEF83
:1004980002F051EF02F058EF02F0000E146E2650F1
:1004A8009DEC04F0FCEF02F0030E146E1E509DEC60
:1004B80004F0FCEF02F00F50D8A465EF02F067EFEC
:1004C80002F06EEF02F0000E146E26509DEC04F060
:1004D800FCEF02F0030E146E1E509DEC04F0FCEFCE
:1004E80002F00E50D8A47BEF02F07DEF02F084EF0B
:1004F80002F0000E146E0B0E9DEC04F0FCEF02F0FF
:100508000E04D8A48AEF02F08CEF02F093EF02F009
:10051800010E146E0C0E9DEC04F0FCEF02F0020EBE
:10052800146E0D0E9DEC04F0FCEF02F00D50D8A4F3
:10053800A0EF02F0A2EF02F0A9EF02F0000E146E95
:100548000A0E9DEC04F0FCEF02F00D04D8A4AFEF06
:1005580002F0B1EF02F0B8EF02F0010E146E000ED7
:100568009DEC04F0FCEF02F0020E0D18D8A4BFEFCA
:1005780002F0C1EF02F0C8EF02F0020E146E050E91
:100588009DEC04F0FCEF02F0030E146E0B0E9DECD4
:1005980004F0FCEF02F00550186E196A1950000AB1
:1005A800D8B4D9EF02F0FCEF02F01850000AD8B422
:1005B800F1EF01F0010AD8B407EF02F0030AD8B44A
:1005C8001DEF02F0010AD8B433EF02F0070AD8B4DD
:1005D80049EF02F0010AD8B45FEF02F0030AD8B479
:1005E80075EF02F0010AD8B49AEF02F0FCEF02F0BE
:1005F80012000650D8A403EF03F005EF03F00BEF49
:1006080003F0CECF12F0CFCF11F0010E066E060424
:10061800D8A411EF03F013EF03F0CDEF03F012505D
:10062800070B186E24EF03F0000E186E3DEF03F071
:10063800010E186E3DEF03F0020E186E3DEF03F049
:100648001850146E156A1550000AD8B42EEF03F02E
:100658003DEF03F01450050AD8B418EF03F0030A6D
:10066800D8B41CEF03F0010AD8B420EF03F03DEF33
:1006780003F0010E166E18C014F016C015F0142AF7
:1006880048EF03F0D8901536142E46EF03F01550B6
:10069800166E000E806E16C080FF2504D8A457EF92
:1006A80003F059EF03F071EF03F01250010B196ECC
:1006B8001150010B1A6ED8901130116ED89012306B
:1006C800126E1940800B196E1A40800B1A6E125068
:1006D8001910126E11501A10116E020E2518D8A496
:1006E80078EF03F07AEF03F09FEF03F0030E176E35
:1006F80097EF03F01250010B196E1150010B1A6E8F
:10070800D8901130116ED8901230126E1940800BAB
:10071800196E1A40800B1A6E12501910126E115071
:100728001A10116E17061750D8A49DEF03F09FEF0B
:1007380003F07EEF03F0030E2518D8A4A6EF03F00C
:10074800A8EF03F0CDEF03F0050E176EC5EF03F029
:100758001250010B196E1150010B1A6ED8901130FE
:10076800116ED8901230126E1940800B196E1A4013
:10077800800B1A6E12501910126E11501A10116E49
:1007880017061750D8A4CBEF03F0CDEF03F0ACEF6A
:1007980003F012000B50D8B4D4EF03F0D6EF03F0F7
:1007A800DEEF03F00A50D8B4DCEF03F0DEEF03F01D
:1007B80006EF04F00904D8A4E4EF03F0E6EF03F031
:1007C800E8EF03F006EF04F082A0EDEF03F0EFEF9F
:1007D80003F006EF04F0090E266E010E096E000EF6
:1007E800056EA5EC05F0CDEC05F0000E096E010EC6
:1007F8000B6E000E0A6E000E946E000E826ED58E81
:10080800C90ECD6E2450D8A40CEF04F00EEF04F0FE
:100818001BEF04F086B013EF04F015EF04F024EF9B
:1008280004F0010E246E000E1F6E24EF04F086A063
:1008380020EF04F022EF04F024EF04F0000E246E01
:100848002350D8A42AEF04F02CEF04F039EF04F079
:1008580086B231EF04F033EF04F042EF04F0010EFA
:10086800236E010E1F6E42EF04F086A23EEF04F0E5
:1008780040EF04F042EF04F0000E236E2250D8A49B
:1008880048EF04F04AEF04F057EF04F086B44FEF56
:1008980004F051EF04F060EF04F0010E226E020E36
:1008A8001F6E60EF04F086A45CEF04F05EEF04F0C6
:1008B80060EF04F0000E226E2150D8A466EF04F019
:1008C80068EF04F075EF04F086B66DEF04F06FEF93
:1008D80004F07EEF04F0010E216E030E1F6E7EEF12
:1008E80004F086A67AEF04F07CEF04F07EEF04F0C3
:1008F800000E216E2050D8A484EF04F086EF04F097
:1009080093EF04F086B88BEF04F08DEF04F09CEFC2
:1009180004F0010E206E040E1F6E9CEF04F086A8F2
:1009280098EF04F09AEF04F09CEF04F0000E206EAC
:100938001200176ED8EF04F03F0E886E2DEF05F009
:10094800060E886E2DEF05F05B0E886E2DEF05F014
:100958004F0E886E2DEF05F0660E886E2DEF05F0B0
:100968006D0E886E2DEF05F07D0E886E2DEF05F06B
:10097800070E886E2DEF05F07F0E886E2DEF05F0BF
:100988006F0E886E2DEF05F0380E886E2DEF05F08E
:10099800790E886E2DEF05F0540E886E2DEF05F058
:1009A8005E0E886E2DEF05F01750156E166A1650FC
:1009B800000AD8B4E2EF04F02DEF05F01550000A54
:1009C800D8B4A0EF04F0010AD8B4A4EF04F0030AE5
:1009D800D8B4A8EF04F0010AD8B4ACEF04F0070AC1
:1009E800D8B4B0EF04F0010AD8B4B4EF04F0030AA5
:1009F800D8B4B8EF04F0010AD8B4BCEF04F00F0A79
:100A0800D8B4C0EF04F0010AD8B4C4EF04F0030A64
:100A1800D8B4C8EF04F0010AD8B4CCEF04F0070A40
:100A2800D8B4D0EF04F0010AD8B4D4EF04F02DEF15
:100A380005F0010E876E4AEF05F0020E876E4AEF49
:100A480005F0040E876E4AEF05F0080E876E4AEF30
:100A580005F01450156E166A1650000AD8B437EF10
:100A680005F04AEF05F01550000AD8B41DEF05F05F
:100A7800010AD8B421EF05F0030AD8B425EF05F030
:100A8800010AD8B429EF05F04AEF05F012000F0467
:100A9800D8A451EF05F053EF05F057EF05F0000E1D
:100AA8000F6E59EF05F0010E0F6E020E0E18D8A446
:100AB80060EF05F062EF05F066EF05F0000E0E6ED0
:100AC80067EF05F00E2A030E0D18D8A46EEF05F097
:100AD80070EF05F074EF05F0000E0D6E75EF05F080
:100AE8000D2AF294012E7BEF05F0010E036E120021
:100AF800C10ECD6E84CF85FF83CF84FF82CF83FF65
:100B08000C50D8B48AEF05F08CEF05F08EEF05F0A5
:100B18000CC083FF81CF0CF081CF8BFF80CF81FF8A
:100B28001F0E80161F0E81161F0E8B161F0E8316A2
:100B38001F0E84161F0E8516000E806EC90ECD6E10
:100B48001200000E0C6E090E266E010E256E000EA8
:100B58000B6E000E0A6E000E096E24682368226868
:100B680021682068000E106E000E0F6E000E0E6ECB
:100B7800000E0D6E050E1F6E000E086E000E076E3D
:100B8800000E046E010E1E6E000E056E000E066E3F
:100B980012000F0EC16E000E926E000E936E010EC3
:100BA800946E000E956E000E966E000E976E1F0ED8
:100BB800986E000E996E000E9A6E000E806E000EF2
:100BC800816E000E836E000E846E000E856E000E20
:100BD800876E000E886EC10ECD6E1200A5EC05F072
:100BE800CDEC05F053EC06F063EC06F0CEEC03F028
:100BF800EFEC01F00B50D8B404EF06F006EF06F066
:100C0800FAEF05F00A04D8A40CEF06F00EEF06F090
:100C180010EF06F0FAEF05F015EC00F0FAEF05F02A
:100C280013EF00F0CC0EF66E0C0EF76E000EF86E99
:100C38000900F5CF27F00900F5CF28F00900F5CF16
:100C480029F000EE01F0120EEE6AE806FDE12A90A6
:100C58002A920001F2EF05F026062650D8A437EFB5
:100C680006F039EF06F03BEF06F0070E056E1200AE
:100C78000600F2A442EF06F044EF06F046EF06F055
:100C88004BEC05F02A921100146E14C001F0000E0E
:100C9800036E000ED76E000ED66EF2941200470E49
:100CA800D56E000ED76E000ED66EC10ECD6E120038
:100CB800000E0B6E010E0A6ECDEC05F01200A00EB0
:070CC800F26E12000F0A0595
:020000040020DA
:08000000FFFFFFFFFFFFFFFF00
:020000040030CA
:0E000000FF061F1EF38385FFFFC0FFE0FF40D9
:00000001FF
