:020000040000FA
:0400000013EF00F00A
:0600080031826AED06F0F2
:100018003180E0CF07F007C0E0FF3190100037EFE4
:1000280006F0000E166E2904D8A41DEF00F01FEF8D
:1000380000F021EF00F0162A29682804D8A427EF39
:1000480000F029EF00F02BEF00F0162A28682704AB
:10005800D8A431EF00F033EF00F035EF00F0162AA6
:1000680027682604D8A43BEF00F03DEF00F03FEFEF
:1000780000F0162A26682504D8A445EF00F047EFBB
:1000880000F049EF00F0162A2568010E16644FEFBC
:1000980000F051EF00F089EF00F02468010E1F6EA8
:1000A80089EF00F09BEC06F0B5EF00F085A05FEF5C
:1000B80000F061EF00F056EF00F0010E196EB5EF99
:1000C80000F085A26AEF00F06CEF00F056EF00F048
:1000D80061EF00F085A473EF00F075EF00F056EFC4
:1000E80000F061EF00F085A67CEF00F07EEF00F0F5
:1000F80056EF00F061EF00F085A885EF00F087EF7C
:1001080000F056EF00F061EF00F02450146E156A0D
:100118001550000AD8B497EF00F0FF0AD8B4AEEF34
:1001280000F0B5EF00F01450000AD8B45AEF00F010
:10013800010AD8B465EF00F0030AD8B46EEF00F0F6
:10014800010AD8B477EF00F0070AD8B480EF00F0BE
:10015800B5EF00F01450FF0AD8B456EF00F0B5EF31
:1001680000F0050E246EBDEF01F04D0E8FEC06F089
:10017800010E1B6EDAEC03F01A2A010E2D6EEAEF5F
:1001880001F01904D8A4CBEF00F0CDEF00F0EAEFAE
:1001980001F01E2A1F50D8A4D4EF00F0D6EF00F0CB
:1001A800E4EF00F01E50800A7A0FD8A0DEEF00F0CE
:1001B800E0EF00F0E4EF00F09BEC06F0E6EF00F073
:1001C800000E1F6E050E1A60ECEF00F0EEEF00F067
:1001D800F2EF00F082EC06F0DAEC03F0040E1A6499
:1001E800F8EF00F0FAEF00F0FCEF00F082EC06F018
:1001F8001A2A0B0E1A18D8A404EF01F006EF01F022
:1002080008EF01F0020E1B6E4D0E8FEC06F0EAEFC0
:1002180001F0000E1A6E3D0E8FEC06F0030E1B6EF9
:10022800DAEC03F01A2A020E2D6EEAEF01F0190437
:10023800D8A421EF01F023EF01F0EAEF01F01E2A24
:100248001F50D8A42AEF01F02CEF01F03AEF01F08B
:100258001E50800A7A0FD8A034EF01F036EF01F073
:100268003AEF01F09BEC06F03CEF01F0000E1F6E38
:100278000A0E1A6042EF01F044EF01F048EF01F076
:1002880082EC06F0DAEC03F0090E1A644EEF01F086
:1002980050EF01F052EF01F082EC06F01A2A100E2E
:1002A8001A18D8A45AEF01F05CEF01F05EEF01F0E4
:1002B800040E1B6E3D0E8FEC06F0EAEF01F0000E07
:1002C8001A6E2E0E8FEC06F0050E1B6EDAEC03F09C
:1002D8001A2A030E2D6EEAEF01F01904D8A477EF5D
:1002E80001F079EF01F0EAEF01F01E2A1F50D8A4BF
:1002F80080EF01F082EF01F090EF01F01E50800ACC
:100308007A0FD8A08AEF01F08CEF01F090EF01F09E
:100318009BEC06F092EF01F0000E1F6E0F0E1A60B4
:1003280098EF01F09AEF01F09EEF01F082EC06F0F1
:10033800DAEC03F00E0E1A64A4EF01F0A6EF01F058
:10034800A8EF01F082EC06F01A2A150E1A18D8A4A4
:10035800B0EF01F0B2EF01F0B4EF01F0060E1B6E42
:100368002E0E8FEC06F0EAEF01F0B0EC06F0EAEFA3
:1003780001F01B50146E156A1550000AD8B4C7EF67
:1003880001F0EAEF01F01450000AD8B4B9EF00F018
:10039800010AD8B4C5EF00F0030AD8B40DEF01F094
:1003A800010AD8B41BEF01F0070AD8B463EF01F0D3
:1003B800010AD8B471EF01F0030AD8B4B9EF01F01B
:1003C800010AD8B4B9EF01F0EAEF01F01200DFEF4B
:1003D80002F022B0F2EF01F0F4EF01F0FBEF01F0D0
:1003E800000E086E2C508CEC04F00CEF03F0030E9A
:1003F800086E2D508CEC04F00CEF03F022B007EFE0
:1004080002F009EF02F010EF02F0000E086E2C5017
:100418008CEC04F00CEF03F0030E086E2D508CECFE
:1004280004F00CEF03F022B01CEF02F01EEF02F014
:1004380025EF02F0000E086E2C508CEC04F00CEF47
:1004480003F0030E086E2D508CEC04F00CEF03F053
:1004580022B031EF02F033EF02F03AEF02F0000E73
:10046800086E2C508CEC04F00CEF03F0030E086EB1
:100478002D508CEC04F00CEF03F022B046EF02F0A4
:1004880048EF02F04FEF02F0000E086E2C508CEC93
:1004980004F00CEF03F0030E086E2D508CEC04F002
:1004A8000CEF03F022B05BEF02F05DEF02F064EFB7
:1004B80002F0000E086E2C508CEC04F00CEF03F0E8
:1004C800030E086E2D508CEC04F00CEF03F022C0E4
:1004D80008F0096A000E0B6E030E0A6E3AEC05F07E
:1004E80008500910D8A47BEF02F07DEF02F084EFEA
:1004F80002F0000E086E0B0E8CEC04F00CEF03F00B
:1005080022C008F0096A000E0B6E030E0A6E3AEC60
:1005180005F008040910D8A494EF02F096EF02F051
:100528009DEF02F0010E086E0C0E8CEC04F00CEF3F
:1005380003F0020E086E0D0E8CEC04F00CEF03F0C5
:1005480022C00EF0030E0E16D8A4ADEF02F0AFEFE6
:1005580002F0B6EF02F0000E086E0A0E8CEC04F002
:100568000CEF03F02250030BE806D8A4BEEF02F00C
:10057800C0EF02F0C7EF02F0010E086E000E8CEC1F
:1005880004F00CEF03F02250030B020AD8A4CFEFBB
:1005980002F0D1EF02F0D8EF02F0020E086E050E5D
:1005A8008CEC04F00CEF03F0030E086E0B0E8CECD1
:1005B80004F00CEF03F01B500E6E0F6A0F50000A88
:1005C800D8B4E9EF02F00CEF03F00E50000AD8B4EB
:1005D800EDEF01F0010AD8B402EF02F0030AD8B433
:1005E80017EF02F0010AD8B42CEF02F0070AD8B4CA
:1005F80041EF02F0010AD8B456EF02F0030AD8B46A
:100608006BEF02F0010AD8B4A4EF02F00CEF03F08C
:1006180012002A50D8B413EF03F015EF03F01DEFC2
:1006280003F02150D8B41BEF03F01DEF03F043EFA4
:1006380003F02004D8A423EF03F025EF03F038EFEC
:1006480003F082B02AEF03F02CEF03F043EF03F03E
:10065800000E206E010E2A6E000E216E000E946EA2
:10066800000E826E43EF03F082A03DEF03F03FEFF0
:1006780003F043EF03F0010E206E000E1B6E2950AD
:10068800D8A449EF03F04BEF03F058EF03F086B01E
:1006980050EF03F052EF03F061EF03F0010E296E03
:1006A800000E246E61EF03F086A05DEF03F05FEFAC
:1006B80003F061EF03F0000E296E2850D8A467EF0D
:1006C80003F069EF03F076EF03F086B26EEF03F004
:1006D80070EF03F07FEF03F0010E286E010E246E19
:1006E8007FEF03F086A27BEF03F07DEF03F07FEF4F
:1006F80003F0000E286E2750D8A485EF03F087EF8B
:1007080003F094EF03F086B48CEF03F08EEF03F060
:100718009DEF03F0010E276E020E246E9DEF03F08D
:1007280086A499EF03F09BEF03F09DEF03F0000E12
:10073800276E2650D8A4A3EF03F0A5EF03F0B2EF7D
:1007480003F086B6AAEF03F0ACEF03F0BBEF03F0BB
:10075800010E266E030E246EBBEF03F086A6B7EFDC
:1007680003F0B9EF03F0BBEF03F0000E266E25503F
:10077800D8A4C1EF03F0C3EF03F0D0EF03F086B8BD
:10078800C8EF03F0CAEF03F0D9EF03F0010E256EAE
:10079800040E246ED9EF03F086A8D5EF03F0D7EF47
:1007A80003F0D9EF03F0000E256E1200000E806EE4
:1007B8001D50D8A4E2EF03F0E4EF03F0EAEF03F0F2
:1007C800CFCF1CF0CECF23F0010E1D6E1D04D8A490
:1007D800F0EF03F0F2EF03F08BEF04F02350070B78
:1007E800106E10C008F0096A000E0B6E050E0A6E36
:1007F8003AEC05F00850106E010E0F6E000E0E6EEA
:100808000AEF04F00F500F240F6E0E2A10500E5CE2
:10081800D8A011EF04F013EF04F006EF04F00FC0B6
:1008280080FF2B04D8A41BEF04F01DEF04F033EF76
:1008380004F0CE50010B126ECF50010B136E000E58
:100848001C6E000E236E1240800B126E1340800B3C
:10085800136E23501210236E1C5013101C6E020EC0
:100868002B18D8A43AEF04F03CEF04F05FEF04F043
:10087800030E116E57EF04F0CE50010B126ECF50DD
:10088800010B136E000E1C6E000E236E1240800BBF
:10089800126E1340800B136E23501210236E1C50DF
:1008A80013101C6E11061150D8A45DEF04F05FEF11
:1008B80004F040EF04F0030E2B18D8A466EF04F000
:1008C80068EF04F08BEF04F0050E116E83EF04F06F
:1008D800CE50010B126ECF50010B136E000E1C6E22
:1008E800000E236E1240800B126E1340800B136EA5
:1008F80023501210236E1C5013101C6E1106115039
:10090800D8A489EF04F08BEF04F06CEF04F0120028
:100918000B6EC7EF04F03F0E886E1CEF05F0060E55
:10092800886E1CEF05F05B0E886E1CEF05F04F0E0D
:10093800886E1CEF05F0660E886E1CEF05F06D0ED4
:10094800886E1CEF05F07D0E886E1CEF05F0070E13
:10095800886E1CEF05F07F0E886E1CEF05F06F0E99
:10096800886E1CEF05F0380E886E1CEF05F0790EC6
:10097800886E1CEF05F0540E886E1CEF05F05E0EB5
:10098800886E1CEF05F00B50096E0A6A0A50000ABF
:10099800D8B4D1EF04F01CEF05F00950000AD8B420
:1009A8008FEF04F0010AD8B493EF04F0030AD8B427
:1009B80097EF04F0010AD8B49BEF04F0070AD8B403
:1009C8009FEF04F0010AD8B4A3EF04F0030AD8B4E7
:1009D800A7EF04F0010AD8B4ABEF04F00F0AD8B4BB
:1009E800AFEF04F0010AD8B4B3EF04F0030AD8B4A7
:1009F800B7EF04F0010AD8B4BBEF04F0070AD8B483
:100A0800BFEF04F0010AD8B4C3EF04F01CEF05F0FF
:100A1800010E876E39EF05F0020E876E39EF05F08B
:100A2800040E876E39EF05F0080E876E39EF05F072
:100A38000850096E0A6A0A50000AD8B426EF05F071
:100A480039EF05F00950000AD8B40CEF05F0010A97
:100A5800D8B410EF05F0030AD8B414EF05F0010A72
:100A6800D8B418EF05F039EF05F01200000E0D6E3E
:100A780009BE43EF05F041EF05F049EF05F0086CBA
:100A8800091ED8B0092A010E0D6E0BBE50EF05F0F5
:100A98004EEF05F054EF05F00A6C0B1ED8B00B2A88
:100AA8000A500B10D8B45BEF05F05DEF05F081EF4D
:100AB80005F0010E0C6E65EF05F0D8900A360B367E
:100AC8000C2A0BAE6AEF05F06CEF05F061EF05F04C
:100AD8000A50085C0B500958D8A075EF05F077EF5D
:100AE80005F07BEF05F00A50085E0B50095AD890C4
:100AF8000B320A320C2E6CEF05F00D50D8B487EF8C
:100B080005F089EF05F08DEF05F0086C091ED8B0E7
:100B1800092A08C008F009C009F01200000E066E84
:100B280002BE9BEF05F099EF05F0A1EF05F0016C0F
:100B3800021ED8B0022A010E066E04BEA8EF05F008
:100B4800A6EF05F0ACEF05F0036C041ED8B0042A3C
:100B580003500410D8B4B3EF05F0B5EF05F0D9EFA2
:100B680005F0010E056EBDEF05F0D890033604368A
:100B7800052A04AEC2EF05F0C4EF05F0B9EF05F0A1
:100B88000350015C04500258D8A0CDEF05F0CFEF18
:100B980005F0D3EF05F00350015E0450025AD890D7
:100BA80004320332052EC4EF05F00650D8B4DFEF47
:100BB80005F0E1EF05F0E5EF05F0016C021ED8B095
:100BC800022A01C001F002C002F0120052EC06F045
:100BD80018EC06F0A7EC06F0BEEC06F0000E206E4E
:100BE800010E2A6E000E216E000E946E000E826EAB
:100BF8000DEC03F0EBEC01F02A50D8B406EF06F048
:100C080008EF06F0FCEF05F02104D8A40EEF06F07B
:100C180010EF06F012EF06F0FCEF05F015EC00F00F
:100C2800FCEF05F013EF00F0000E926E000E936ECD
:100C3800000E956E000E966E000E976E1F0E986E43
:100C4800000E996E000E9A6E000E806E000E816E78
:100C5800000E836E000E846E000E856E000E876E89
:100C6800000E886E1200880EF66E0D0EF76E000EDE
:100C7800F86E00EE2DF010EE04F00900F5CFEEFF4F
:100C8800E550E150FAE100EE17F00D0EEE6AE806C5
:100C9800FDE1319031920001EAEF05F0090E2C6E6A
:100CA800010E2B6E000E2A6E000E216E000E206EB5
:100CB80029682868276826682568000E226E050EB0
:100CC800246E000E1F6E000E1E6E12000600F2A4A7
:100CD80070EF06F072EF06F074EF06F0B7EC06F06E
:100CE800222A22C001F0026A000E046E0C0E036E66
:100CF80092EC05F00150226E3192110084CF85FFED
:100D080083CF84FF82CF83FF81CF82FF80CF81FF93
:100D1800000E806E1200086E08C017F0000E196EE3
:100D2800000ED76E000ED66EF294D58E12002C06E9
:100D38002C50D8A4A2EF06F0A4EF06F0A6EF06F018
:100D4800070E1B6E1200470ED56E000ED76E000EF2
:100D5800D66EC90ECD6E1200010E216E000E2A6EDF
:100D6800000E1D6E1200F294172EBDEF06F0010E54
:100D7800196E1200100EF26EF28AF28ED09E1200D8
:040D8800010F0A0548
:020000040020DA
:08000000FFFFFFFFFFFFFFFF00
:020000040030CA
:0E000000FF061F1EF38385FFFFC0FFE0FF40D9
:00000001FF
