:020000040000FA
:0400000013EF00F00A
:060008002E8257ED06F008
:100018002E80E0CF12F012C0E0FF2E90100024EFE7
:1000280006F0000E216E2804D8A41DEF00F01FEF83
:1000380000F021EF00F0212A28682704D8A427EF30
:1000480000F029EF00F02BEF00F0212A27682604A2
:10005800D8A431EF00F033EF00F035EF00F0212A9B
:1000680026682504D8A43BEF00F03DEF00F03FEFF1
:1000780000F0212A25682404D8A445EF00F047EFB2
:1000880000F049EF00F0212A2468010E21644FEFA7
:1000980000F051EF00F08DEF00F02368010E096EBB
:1000A8008DEF00F04BEC06F0B9EF00F085A05FEFA4
:1000B80000F061EF00F056EF00F0010E036EB9EFAB
:1000C80000F085A26AEF00F06CEF00F070EF00F02E
:1000D800010E036E72EF00F04BEC06F085A477EF8B
:1000E80000F079EF00F056EF00F061EF00F085A620
:1000F80080EF00F082EF00F056EF00F061EF00F0C3
:1001080085A889EF00F08BEF00F056EF00F061EF63
:1001180000F023501F6E206A2050000AD8B49BEFCD
:1001280000F0FF0AD8B4B2EF00F0B9EF00F01F50AA
:10013800000AD8B45AEF00F0010AD8B465EF00F00D
:10014800030AD8B472EF00F0010AD8B47BEF00F0CC
:10015800070AD8B484EF00F0B9EF00F01F50FF0A87
:10016800D8B456EF00F0B9EF00F0050E236EC1EFDA
:1001780001F04D0E63EC06F0010E056ECCEC03F0B9
:10018800042A010E226EEEEF01F00304D8A4CFEF8B
:1001980000F0D1EF00F0EEEF01F0082A0950D8A4E2
:1001A800D8EF00F0DAEF00F0E8EF00F00850800A2E
:1001B8007A0FD8A0E2EF00F0E4EF00F0E8EF00F0EB
:1001C8004BEC06F0EAEF00F0000E096E050E046035
:1001D800F0EF00F0F2EF00F0F6EF00F03EEC06F082
:1001E800CCEC03F0040E0464FCEF00F0FEEF00F02A
:1001F80000EF01F03EEC06F0042A0B0E0418D8A418
:1002080008EF01F00AEF01F00CEF01F0020E056EA5
:100218004D0E63EC06F0EEEF01F0000E046E3D0E9D
:1002280063EC06F0030E056ECCEC03F0042A020E14
:10023800226EEEEF01F00304D8A425EF01F027EFBA
:1002480001F0EEEF01F0082A0950D8A42EEF01F0D2
:1002580030EF01F03EEF01F00850800A7A0FD8A085
:1002680038EF01F03AEF01F03EEF01F04BEC06F009
:1002780040EF01F0000E096E0A0E046046EF01F02F
:1002880048EF01F04CEF01F03EEC06F0CCEC03F047
:10029800090E046452EF01F054EF01F056EF01F03B
:1002A8003EEC06F0042A100E0418D8A45EEF01F004
:1002B80060EF01F062EF01F0040E056E3D0E63EC95
:1002C80006F0EEEF01F0000E046E2E0E63EC06F061
:1002D800050E056ECCEC03F0042A030E226EEEEF39
:1002E80001F00304D8A47BEF01F07DEF01F0EEEFFD
:1002F80001F0082A0950D8A484EF01F086EF01F034
:1003080094EF01F00850800A7A0FD8A08EEF01F020
:1003180090EF01F094EF01F04BEC06F096EF01F04E
:10032800000E096E0F0E04609CEF01F09EEF01F0C5
:10033800A2EF01F03EEC06F0CCEC03F00E0E0464E4
:10034800A8EF01F0AAEF01F0ACEF01F03EEC06F0E7
:10035800042A150E0418D8A4B4EF01F0B6EF01F082
:10036800B8EF01F0060E056E2E0E63EC06F0EEEF08
:1003780001F077EC06F0EEEF01F005501F6E206AF1
:100388002050000AD8B4CBEF01F0EEEF01F01F5077
:10039800000AD8B4BDEF00F0010AD8B4C9EF00F0E4
:1003A800030AD8B411EF01F0010AD8B41FEF01F025
:1003B800070AD8B467EF01F0010AD8B475EF01F065
:1003C800030AD8B4BDEF01F0010AD8B4BDEF01F0BB
:1003D800EEEF01F01200CFEF02F00F50D8A4F7EFC4
:1003E80001F0F9EF01F000EF02F0000E136E2A5051
:1003F8007EEC04F0FCEF02F0030E136E22507EEC4C
:1004080004F0FCEF02F00F50D8A40DEF02F00FEF4C
:1004180002F016EF02F0000E136E2A507EEC04F084
:10042800FCEF02F0030E136E22507EEC04F0FCEF9A
:1004380002F00F50D8A423EF02F025EF02F02CEFC2
:1004480002F0000E136E2A507EEC04F0FCEF02F06E
:10045800030E136E22507EEC04F0FCEF02F00F50F6
:10046800D8A439EF02F03BEF02F042EF02F0000EA1
:10047800136E2A507EEC04F0FCEF02F0030E136EAC
:1004880022507EEC04F0FCEF02F00F50D8A44FEF9E
:1004980002F051EF02F058EF02F0000E136E2A50EE
:1004A8007EEC04F0FCEF02F0030E136E22507EEC9B
:1004B80004F0FCEF02F00F50D8A465EF02F067EFEC
:1004C80002F06EEF02F0000E136E2A507EEC04F07C
:1004D800FCEF02F0030E136E22507EEC04F0FCEFEA
:1004E80002F00E50D8A47BEF02F07DEF02F084EF0B
:1004F80002F0000E136E0B0E7EEC04F0FCEF02F01F
:100508000E04D8A48AEF02F08CEF02F093EF02F009
:10051800010E136E0C0E7EEC04F0FCEF02F0020EDE
:10052800136E0D0E7EEC04F0FCEF02F00D50D8A413
:10053800A0EF02F0A2EF02F0A9EF02F0000E136E96
:100548000A0E7EEC04F0FCEF02F00D04D8A4AFEF25
:1005580002F0B1EF02F0B8EF02F0010E136E000ED8
:100568007EEC04F0FCEF02F0020E0D18D8A4BFEFE9
:1005780002F0C1EF02F0C8EF02F0020E136E050E92
:100588007EEC04F0FCEF02F0030E136E0B0E7EEC13
:1005980004F0FCEF02F00550176E186A1850000AB4
:1005A800D8B4D9EF02F0FCEF02F01750000AD8B423
:1005B800F1EF01F0010AD8B407EF02F0030AD8B44A
:1005C8001DEF02F0010AD8B433EF02F0070AD8B4DD
:1005D80049EF02F0010AD8B45FEF02F0030AD8B479
:1005E80075EF02F0010AD8B49AEF02F0FCEF02F0BE
:1005F80012000C50D8B403EF03F005EF03F00DEF31
:1006080003F00B50D8B40BEF03F00DEF03F035EF08
:1006180003F00A04D8A413EF03F015EF03F017EF63
:1006280003F035EF03F082A01CEF03F01EEF03F098
:1006380035EF03F0090E2A6E010E0A6E000E056EE4
:10064800B5EC05F0DBEC05F0000E0A6E010E0C6E41
:10065800000E0B6E000E946E000E826ED58EC90EC3
:10066800CD6E2850D8A43BEF03F03DEF03F04AEFDE
:1006780003F086B042EF03F044EF03F053EF03F0CA
:10068800010E286E000E236E53EF03F086A04FEF85
:1006980003F051EF03F053EF03F0000E286E2750DC
:1006A800D8A459EF03F05BEF03F068EF03F086B2CC
:1006B80060EF03F062EF03F071EF03F0010E276EB5
:1006C800010E236E71EF03F086A26DEF03F06FEF5A
:1006D80003F071EF03F0000E276E2650D8A477EFD1
:1006E80003F079EF03F086EF03F086B47EEF03F0B2
:1006F80080EF03F08FEF03F0010E266E020E236EDB
:100708008FEF03F086A48BEF03F08DEF03F08FEFEC
:1007180003F0000E266E2550D8A495EF03F097EF4E
:1007280003F0A4EF03F086B69CEF03F09EEF03F00E
:10073800ADEF03F0010E256E030E236EADEF03F04F
:1007480086A6A9EF03F0ABEF03F0ADEF03F0000EC0
:10075800256E2450D8A4B3EF03F0B5EF03F0C2EF31
:1007680003F086B8BAEF03F0BCEF03F0CBEF03F069
:10077800010E246E040E236ECBEF03F086A8C7EF9C
:1007880003F0C9EF03F0CBEF03F0000E246E120064
:10079800000E806E0750D8A4D4EF03F0D6EF03F014
:1007A800DCEF03F0CECF11F0CFCF06F0010E076ECD
:1007B8000704D8A4E2EF03F0E4EF03F07DEF04F0C0
:1007C8001150070B1B6E1BC013F0146A000E166E37
:1007D800050E156E2CEC05F013501B6E010E1A6EEB
:1007E800000E196EFCEF03F01A501A241A6E192A1B
:1007F8001B50195CD8A003EF04F005EF04F0F8EFE4
:1008080003F01AC080FF2904D8A40DEF04F00FEFFD
:1008180004F025EF04F0CE50010B1D6ECF50010BF4
:100828001E6E000E066E000E116E1D40800B1D6EB2
:100838001E40800B1E6E11501D10116E06501E10AA
:10084800066E020E2918D8A42CEF04F02EEF04F03F
:1008580051EF04F0030E1C6E49EF04F0CE50010B6B
:100868001D6ECF50010B1E6E000E066E000E116E2F
:100878001D40800B1D6E1E40800B1E6E11501D10FA
:10088800116E06501E10066E1C061C50D8A44FEFA1
:1008980004F051EF04F032EF04F0030E2918D8A445
:1008A80058EF04F05AEF04F07DEF04F0050E1C6ECB
:1008B80075EF04F0CE50010B1D6ECF50010B1E6E6C
:1008C800000E066E000E116E1D40800B1D6E1E4040
:1008D800800B1E6E11501D10116E06501E10066EF4
:1008E8001C061C50D8A47BEF04F07DEF04F05EEFEB
:1008F80004F01200166EB9EF04F03F0E886E0EEF8A
:1009080005F0060E886E0EEF05F05B0E886E0EEF92
:1009180005F04F0E886E0EEF05F0660E886E0EEF2E
:1009280005F06D0E886E0EEF05F07D0E886E0EEFE9
:1009380005F0070E886E0EEF05F07F0E886E0EEF3D
:1009480005F06F0E886E0EEF05F0380E886E0EEF0C
:1009580005F0790E886E0EEF05F0540E886E0EEFD6
:1009680005F05E0E886E0EEF05F01650146E156ACF
:100978001550000AD8B4C3EF04F00EEF05F0145078
:10098800000AD8B481EF04F0010AD8B485EF04F066
:10099800030AD8B489EF04F0010AD8B48DEF04F043
:1009A800070AD8B491EF04F0010AD8B495EF04F01F
:1009B800030AD8B499EF04F0010AD8B49DEF04F003
:1009C8000F0AD8B4A1EF04F0010AD8B4A5EF04F0D7
:1009D800030AD8B4A9EF04F0010AD8B4ADEF04F0C3
:1009E800070AD8B4B1EF04F0010AD8B4B5EF04F09F
:1009F8000EEF05F0010E876E2BEF05F0020E876EE5
:100A08002BEF05F0040E876E2BEF05F0080E876EAE
:100A18002BEF05F01350146E156A1550000AD8B460
:100A280018EF05F02BEF05F01450000AD8B4FEEFCC
:100A380004F0010AD8B402EF05F0030AD8B406EFAF
:100A480005F0010AD8B40AEF05F02BEF05F0120003
:100A5800000E186E14BE35EF05F033EF05F03BEFCE
:100A680005F0136C141ED8B0142A010E186E16BEA9
:100A780042EF05F040EF05F046EF05F0156C161E45
:100A8800D8B0162A15501610D8B44DEF05F04FEF10
:100A980005F073EF05F0010E176E57EF05F0D890CB
:100AA80015361636172A16AE5CEF05F05EEF05F020
:100AB80053EF05F01550135C16501458D8A067EF83
:100AC80005F069EF05F06DEF05F01550135E16504F
:100AD800145AD89016321532172E5EEF05F01850BA
:100AE800D8B479EF05F07BEF05F07FEF05F0136CD4
:100AF800141ED8B0142A13C013F014C014F0120036
:100B08000F04D8A48AEF05F08CEF05F090EF05F0FC
:100B1800000E0F6E92EF05F0010E0F6E020E0E180A
:100B2800D8A499EF05F09BEF05F09FEF05F0000EB4
:100B38000E6EA0EF05F00E2A030E0D18D8A4A7EF2D
:100B480005F0A9EF05F0ADEF05F0000E0D6EAEEF64
:100B580005F00D2AF294012EB4EF05F0010E036E94
:100B68001200090E2A6E010E296E000E0C6E000E80
:100B78000B6E000E0A6E28682768266825682468A8
:100B8800000E106E000E0F6E000E0E6E000E0D6E33
:100B9800050E236E000E096E000E086E000E046E20
:100BA800010E226E000E056E000E076E12000F0E6B
:100BB800C16E000E926E000E936E010E946E000EC2
:100BC800956E000E966E000E976E1F0E986E000EB4
:100BD800996E000E9A6E000E806E000E816E000EE9
:100BE800836E000E846E000E856E000E876E000EFA
:100BF800886EC10ECD6E1200B5EC05F0DBEC05F089
:100C08006EEC06F07EEC06F0FDEC02F0EFEC01F085
:100C18000C50D8B412EF06F014EF06F008EF06F007
:100C28000B04D8A41AEF06F01CEF06F01EEF06F02E
:100C380008EF06F015EC00F008EF06F013EF00F0EF
:100C4800020EF66E0D0EF76E000EF86E0900F5CF67
:100C58002BF00900F5CF2CF00900F5CF2DF000EEB0
:100C680001F0110EEE6AE806FDE12E902E920001C9
:100C780000EF06F084CF85FF83CF84FF82CF83FF08
:100C880081CF82FF80CF81FF000E806E12002A067E
:100C98002A50D8A452EF06F054EF06F056EF06F0AB
:100CA800070E056E12000600F2A45DEF06F05FEF76
:100CB80006F061EF06F084EC05F02E921100136E39
:100CC80013C001F0000E036E000ED76E000ED66E34
:100CD800F2941200470ED56E000ED76E000ED66E37
:100CE800C10ECD6E1200000E0C6E010E0B6EDBEC09
:0D0CF80005F01200A00EF26E12000F0A05AA
:020000040020DA
:08000000FFFFFFFFFFFFFFFF00
:020000040030CA
:0E000000FF061F1EF38385FFFFC0FFE0FF40D9
:00000001FF
